{
  "_format": "hh-sol-artifact-1",
  "contractName": "VotingContract",
  "sourceName": "contracts/VotingContract.sol",
  "abi": [
    {
      "inputs": [
        {
          "internalType": "uint256",
          "name": "_durationInMinutes",
          "type": "uint256"
        },
        {
          "internalType": "string[]",
          "name": "_candidateNames",
          "type": "string[]"
        },
        {
          "internalType": "string[]",
          "name": "_candidateParties",
          "type": "string[]"
        }
      ],
      "stateMutability": "nonpayable",
      "type": "constructor"
    },
    {
      "anonymous": false,
      "inputs": [
        {
          "indexed": true,
          "internalType": "uint8",
          "name": "candidateId",
          "type": "uint8"
        },
        {
          "indexed": false,
          "internalType": "string",
          "name": "name",
          "type": "string"
        },
        {
          "indexed": false,
          "internalType": "string",
          "name": "party",
          "type": "string"
        }
      ],
      "name": "CandidateAdded",
      "type": "event"
    },
    {
      "anonymous": false,
      "inputs": [
        {
          "indexed": true,
          "internalType": "address",
          "name": "voter",
          "type": "address"
        },
        {
          "indexed": false,
          "internalType": "uint8",
          "name": "candidateId",
          "type": "uint8"
        }
      ],
      "name": "VoteCast",
      "type": "event"
    },
    {
      "anonymous": false,
      "inputs": [
        {
          "indexed": true,
          "internalType": "address",
          "name": "voter",
          "type": "address"
        }
      ],
      "name": "VoterRegistered",
      "type": "event"
    },
    {
      "anonymous": false,
      "inputs": [],
      "name": "VotingClosed",
      "type": "event"
    },
    {
      "stateMutability": "payable",
      "type": "fallback"
    },
    {
      "inputs": [
        {
          "internalType": "string",
          "name": "_name",
          "type": "string"
        },
        {
          "internalType": "string",
          "name": "_party",
          "type": "string"
        },
        {
          "internalType": "string",
          "name": "_ipfsHashReference",
          "type": "string"
        }
      ],
      "name": "addCandidate",
      "outputs": [],
      "stateMutability": "nonpayable",
      "type": "function"
    },
    {
      "inputs": [
        {
          "internalType": "uint256",
          "name": "",
          "type": "uint256"
        }
      ],
      "name": "candidates",
      "outputs": [
        {
          "internalType": "string",
          "name": "name",
          "type": "string"
        },
        {
          "internalType": "string",
          "name": "party",
          "type": "string"
        },
        {
          "internalType": "uint256",
          "name": "voteCount",
          "type": "uint256"
        },
        {
          "internalType": "string",
          "name": "ipfsHashReference",
          "type": "string"
        }
      ],
      "stateMutability": "view",
      "type": "function"
    },
    {
      "inputs": [
        {
          "internalType": "uint8",
          "name": "candidateId",
          "type": "uint8"
        }
      ],
      "name": "castVote",
      "outputs": [],
      "stateMutability": "nonpayable",
      "type": "function"
    },
    {
      "inputs": [],
      "name": "closeVoting",
      "outputs": [],
      "stateMutability": "nonpayable",
      "type": "function"
    },
    {
      "inputs": [
        {
          "internalType": "uint256",
          "name": "",
          "type": "uint256"
        }
      ],
      "name": "files",
      "outputs": [
        {
          "internalType": "string",
          "name": "fileName",
          "type": "string"
        },
        {
          "internalType": "string",
          "name": "ipfsHashCID",
          "type": "string"
        }
      ],
      "stateMutability": "view",
      "type": "function"
    },
    {
      "inputs": [],
      "name": "getCandidateCount",
      "outputs": [
        {
          "internalType": "uint256",
          "name": "",
          "type": "uint256"
        }
      ],
      "stateMutability": "view",
      "type": "function"
    },
    {
      "inputs": [
        {
          "internalType": "uint8",
          "name": "candidateId",
          "type": "uint8"
        }
      ],
      "name": "getCandidateDetails",
      "outputs": [
        {
          "internalType": "string",
          "name": "",
          "type": "string"
        },
        {
          "internalType": "string",
          "name": "",
          "type": "string"
        },
        {
          "internalType": "uint256",
          "name": "",
          "type": "uint256"
        },
        {
          "internalType": "string",
          "name": "",
          "type": "string"
        }
      ],
      "stateMutability": "view",
      "type": "function"
    },
    {
      "inputs": [],
      "name": "owner",
      "outputs": [
        {
          "internalType": "address",
          "name": "",
          "type": "address"
        }
      ],
      "stateMutability": "view",
      "type": "function"
    },
    {
      "inputs": [
        {
          "internalType": "address",
          "name": "_voterAddress",
          "type": "address"
        }
      ],
      "name": "registerVoter",
      "outputs": [],
      "stateMutability": "nonpayable",
      "type": "function"
    },
    {
      "inputs": [
        {
          "components": [
            {
              "internalType": "string",
              "name": "name",
              "type": "string"
            },
            {
              "internalType": "string",
              "name": "party",
              "type": "string"
            },
            {
              "internalType": "uint256",
              "name": "voteCount",
              "type": "uint256"
            },
            {
              "internalType": "string",
              "name": "ipfsHashReference",
              "type": "string"
            }
          ],
          "internalType": "struct VotingContract.Candidate[]",
          "name": "_candidates",
          "type": "tuple[]"
        }
      ],
      "name": "setCandidates",
      "outputs": [],
      "stateMutability": "nonpayable",
      "type": "function"
    },
    {
      "inputs": [
        {
          "components": [
            {
              "internalType": "string",
              "name": "fileName",
              "type": "string"
            },
            {
              "internalType": "string",
              "name": "ipfsHashCID",
              "type": "string"
            }
          ],
          "internalType": "struct VotingContract.File[]",
          "name": "_files",
          "type": "tuple[]"
        }
      ],
      "name": "setFiles",
      "outputs": [],
      "stateMutability": "nonpayable",
      "type": "function"
    },
    {
      "inputs": [],
      "name": "totalRegisteredVoters",
      "outputs": [
        {
          "internalType": "uint8",
          "name": "",
          "type": "uint8"
        }
      ],
      "stateMutability": "view",
      "type": "function"
    },
    {
      "inputs": [
        {
          "internalType": "address",
          "name": "",
          "type": "address"
        }
      ],
      "name": "voters",
      "outputs": [
        {
          "internalType": "bool",
          "name": "isRegistered",
          "type": "bool"
        },
        {
          "internalType": "bool",
          "name": "hasVoted",
          "type": "bool"
        },
        {
          "internalType": "uint8",
          "name": "votedCandidateId",
          "type": "uint8"
        },
        {
          "internalType": "bool",
          "name": "hasClaimedVote",
          "type": "bool"
        }
      ],
      "stateMutability": "view",
      "type": "function"
    },
    {
      "inputs": [],
      "name": "votingEndTime",
      "outputs": [
        {
          "internalType": "uint256",
          "name": "",
          "type": "uint256"
        }
      ],
      "stateMutability": "view",
      "type": "function"
    },
    {
      "inputs": [],
      "name": "votingOpen",
      "outputs": [
        {
          "internalType": "bool",
          "name": "",
          "type": "bool"
        }
      ],
      "stateMutability": "view",
      "type": "function"
    },
    {
      "stateMutability": "payable",
      "type": "receive"
    }
  ],
  "bytecode": "0x60806040523480156200001157600080fd5b50604051620035fd380380620035fd833981810160405281019062000037919062000564565b336000806101000a81548173ffffffffffffffffffffffffffffffffffffffff021916908373ffffffffffffffffffffffffffffffffffffffff1602179055506001600060146101000a81548160ff021916908315150217905550603c83620000a191906200062d565b42620000ae919062000678565b6001819055506000825111620000fb576040517f08c379a0000000000000000000000000000000000000000000000000000000008152600401620000f2906200073a565b60405180910390fd5b60005b82518160ff161015620002905760056040518060800160405280858460ff16815181106200013157620001306200075c565b5b60200260200101518152602001848460ff16815181106200015757620001566200075c565b5b60200260200101518152602001600081526020016040518060200160405280600081525081525090806001815401808255809150506001900390600052602060002090600402016000909190919091506000820151816000019081620001be9190620009cc565b506020820151816001019081620001d69190620009cc565b50604082015181600201556060820151816003019081620001f89190620009cc565b5050508060ff167fb15677d2b88ed6302d298c56974c00758cc8f3b79a24a0f6d6316dca6d7e74d5848360ff16815181106200023957620002386200075c565b5b6020026020010151848460ff16815181106200025a57620002596200075c565b5b60200260200101516040516200027292919062000af4565b60405180910390a28080620002879062000b3c565b915050620000fe565b5050505062000b6a565b6000604051905090565b600080fd5b600080fd5b6000819050919050565b620002c381620002ae565b8114620002cf57600080fd5b50565b600081519050620002e381620002b8565b92915050565b600080fd5b6000601f19601f8301169050919050565b7f4e487b7100000000000000000000000000000000000000000000000000000000600052604160045260246000fd5b6200033982620002ee565b810181811067ffffffffffffffff821117156200035b576200035a620002ff565b5b80604052505050565b6000620003706200029a565b90506200037e82826200032e565b919050565b600067ffffffffffffffff821115620003a157620003a0620002ff565b5b602082029050602081019050919050565b600080fd5b600080fd5b600067ffffffffffffffff821115620003da57620003d9620002ff565b5b620003e582620002ee565b9050602081019050919050565b60005b8381101562000412578082015181840152602081019050620003f5565b60008484015250505050565b6000620004356200042f84620003bc565b62000364565b905082815260208101848484011115620004545762000453620003b7565b5b62000461848285620003f2565b509392505050565b600082601f830112620004815762000480620002e9565b5b8151620004938482602086016200041e565b91505092915050565b6000620004b3620004ad8462000383565b62000364565b90508083825260208201905060208402830185811115620004d957620004d8620003b2565b5b835b818110156200052757805167ffffffffffffffff811115620005025762000501620002e9565b5b80860162000511898262000469565b85526020850194505050602081019050620004db565b5050509392505050565b600082601f830112620005495762000548620002e9565b5b81516200055b8482602086016200049c565b91505092915050565b60008060006060848603121562000580576200057f620002a4565b5b60006200059086828701620002d2565b935050602084015167ffffffffffffffff811115620005b457620005b3620002a9565b5b620005c28682870162000531565b925050604084015167ffffffffffffffff811115620005e657620005e5620002a9565b5b620005f48682870162000531565b9150509250925092565b7f4e487b7100000000000000000000000000000000000000000000000000000000600052601160045260246000fd5b60006200063a82620002ae565b91506200064783620002ae565b92508282026200065781620002ae565b91508282048414831517620006715762000670620005fe565b5b5092915050565b60006200068582620002ae565b91506200069283620002ae565b9250828201905080821115620006ad57620006ac620005fe565b5b92915050565b600082825260208201905092915050565b7f4174206c65617374206f6e652063616e6469646174652069732072657175697260008201527f6564000000000000000000000000000000000000000000000000000000000000602082015250565b600062000722602283620006b3565b91506200072f82620006c4565b604082019050919050565b60006020820190508181036000830152620007558162000713565b9050919050565b7f4e487b7100000000000000000000000000000000000000000000000000000000600052603260045260246000fd5b600081519050919050565b7f4e487b7100000000000000000000000000000000000000000000000000000000600052602260045260246000fd5b60006002820490506001821680620007de57607f821691505b602082108103620007f457620007f362000796565b5b50919050565b60008190508160005260206000209050919050565b60006020601f8301049050919050565b600082821b905092915050565b6000600883026200085e7fffffffffffffffffffffffffffffffffffffffffffffffffffffffffffffffff826200081f565b6200086a86836200081f565b95508019841693508086168417925050509392505050565b6000819050919050565b6000620008ad620008a7620008a184620002ae565b62000882565b620002ae565b9050919050565b6000819050919050565b620008c9836200088c565b620008e1620008d882620008b4565b8484546200082c565b825550505050565b600090565b620008f8620008e9565b62000905818484620008be565b505050565b5b818110156200092d5762000921600082620008ee565b6001810190506200090b565b5050565b601f8211156200097c576200094681620007fa565b62000951846200080f565b8101602085101562000961578190505b6200097962000970856200080f565b8301826200090a565b50505b505050565b600082821c905092915050565b6000620009a16000198460080262000981565b1980831691505092915050565b6000620009bc83836200098e565b9150826002028217905092915050565b620009d7826200078b565b67ffffffffffffffff811115620009f357620009f2620002ff565b5b620009ff8254620007c5565b62000a0c82828562000931565b600060209050601f83116001811462000a44576000841562000a2f578287015190505b62000a3b8582620009ae565b86555062000aab565b601f19841662000a5486620007fa565b60005b8281101562000a7e5784890151825560018201915060208501945060208101905062000a57565b8683101562000a9e578489015162000a9a601f8916826200098e565b8355505b6001600288020188555050505b505050505050565b600062000ac0826200078b565b62000acc8185620006b3565b935062000ade818560208601620003f2565b62000ae981620002ee565b840191505092915050565b6000604082019050818103600083015262000b10818562000ab3565b9050818103602083015262000b26818462000ab3565b90509392505050565b600060ff82169050919050565b600062000b498262000b2f565b915060ff820362000b5f5762000b5e620005fe565b5b600182019050919050565b612a838062000b7a6000396000f3fe6080604052600436106100eb5760003560e01c80638da5cb5b1161008a578063ad71f8dc11610059578063ad71f8dc14610306578063c631b2921461032f578063ce52c45a14610346578063f4c714b41461036f576100f2565b80638da5cb5b1461024757806394a1354114610272578063a3ec138d1461029b578063a95824b4146102db576100f2565b80633477ee2e116100c65780633477ee2e1461017557806338db6dd3146101b557806344742b07146101de57806359a726a31461021e576100f2565b8062aa7464146100f45780631ea736e01461011f57806330a563471461014a576100f2565b366100f257005b005b34801561010057600080fd5b506101096103ad565b6040516101169190611756565b60405180910390f35b34801561012b57600080fd5b506101346103c0565b604051610141919061178a565b60405180910390f35b34801561015657600080fd5b5061015f6103c6565b60405161016c919061178a565b60405180910390f35b34801561018157600080fd5b5061019c600480360381019061019791906117e5565b6103d3565b6040516101ac94939291906118a2565b60405180910390f35b3480156101c157600080fd5b506101dc60048036038101906101d7919061195a565b6105ab565b005b3480156101ea57600080fd5b50610205600480360381019061020091906119b3565b610714565b60405161021594939291906118a2565b60405180910390f35b34801561022a57600080fd5b5061024560048036038101906102409190611cd1565b61097d565b005b34801561025357600080fd5b5061025c610c36565b6040516102699190611d29565b60405180910390f35b34801561027e57600080fd5b50610299600480360381019061029491906119b3565b610c5a565b005b3480156102a757600080fd5b506102c260048036038101906102bd919061195a565b61102a565b6040516102d29493929190611d5f565b60405180910390f35b3480156102e757600080fd5b506102f061108e565b6040516102fd9190611da4565b60405180910390f35b34801561031257600080fd5b5061032d60048036038101906103289190611dbf565b6110a1565b005b34801561033b57600080fd5b506103446113ac565b005b34801561035257600080fd5b5061036d60048036038101906103689190611fcf565b6114d1565b005b34801561037b57600080fd5b50610396600480360381019061039191906117e5565b6115f6565b6040516103a4929190612018565b60405180910390f35b600260009054906101000a900460ff1681565b60015481565b6000600580549050905090565b600581815481106103e357600080fd5b90600052602060002090600402016000915090508060000180546104069061207e565b80601f01602080910402602001604051908101604052809291908181526020018280546104329061207e565b801561047f5780601f106104545761010080835404028352916020019161047f565b820191906000526020600020905b81548152906001019060200180831161046257829003601f168201915b5050505050908060010180546104949061207e565b80601f01602080910402602001604051908101604052809291908181526020018280546104c09061207e565b801561050d5780601f106104e25761010080835404028352916020019161050d565b820191906000526020600020905b8154815290600101906020018083116104f057829003601f168201915b5050505050908060020154908060030180546105289061207e565b80601f01602080910402602001604051908101604052809291908181526020018280546105549061207e565b80156105a15780601f10610576576101008083540402835291602001916105a1565b820191906000526020600020905b81548152906001019060200180831161058457829003601f168201915b5050505050905084565b600460008273ffffffffffffffffffffffffffffffffffffffff1673ffffffffffffffffffffffffffffffffffffffff16815260200190815260200160002060000160009054906101000a900460ff161561063b576040517f08c379a0000000000000000000000000000000000000000000000000000000008152600401610632906120fb565b60405180910390fd5b6001600460003373ffffffffffffffffffffffffffffffffffffffff1673ffffffffffffffffffffffffffffffffffffffff16815260200190815260200160002060000160006101000a81548160ff0219169083151502179055506002600081819054906101000a900460ff16809291906106b59061214a565b91906101000a81548160ff021916908360ff160217905550503373ffffffffffffffffffffffffffffffffffffffff167fb6be2187d059cc2a55fe29e0e503b566e1e0f8c8780096e185429350acffd3dd60405160405180910390a250565b606080600060606005805490508560ff1610610765576040517f08c379a000000000000000000000000000000000000000000000000000000000815260040161075c906121bf565b60405180910390fd5b600060058660ff168154811061077e5761077d6121df565b5b90600052602060002090600402016040518060800160405290816000820180546107a79061207e565b80601f01602080910402602001604051908101604052809291908181526020018280546107d39061207e565b80156108205780601f106107f557610100808354040283529160200191610820565b820191906000526020600020905b81548152906001019060200180831161080357829003601f168201915b505050505081526020016001820180546108399061207e565b80601f01602080910402602001604051908101604052809291908181526020018280546108659061207e565b80156108b25780601f10610887576101008083540402835291602001916108b2565b820191906000526020600020905b81548152906001019060200180831161089557829003601f168201915b50505050508152602001600282015481526020016003820180546108d59061207e565b80601f01602080910402602001604051908101604052809291908181526020018280546109019061207e565b801561094e5780601f106109235761010080835404028352916020019161094e565b820191906000526020600020905b81548152906001019060200180831161093157829003601f168201915b505050505081525050905080600001518160200151826040015183606001519450945094509450509193509193565b60008054906101000a900473ffffffffffffffffffffffffffffffffffffffff1673ffffffffffffffffffffffffffffffffffffffff163373ffffffffffffffffffffffffffffffffffffffff1614610a0b576040517f08c379a0000000000000000000000000000000000000000000000000000000008152600401610a0290612280565b60405180910390fd5b600460003373ffffffffffffffffffffffffffffffffffffffff1673ffffffffffffffffffffffffffffffffffffffff16815260200190815260200160002060000160009054906101000a900460ff16610a9a576040517f08c379a0000000000000000000000000000000000000000000000000000000008152600401610a9190612312565b60405180910390fd5b600060149054906101000a900460ff16610ae9576040517f08c379a0000000000000000000000000000000000000000000000000000000008152600401610ae09061237e565b60405180910390fd5b60005b81518160ff161015610c32576005828260ff1681518110610b1057610b0f6121df565b5b602002602001015190806001815401808255809150506001900390600052602060002090600402016000909190919091506000820151816000019081610b56919061254a565b506020820151816001019081610b6c919061254a565b50604082015181600201556060820151816003019081610b8c919061254a565b5050506001600580549050610ba1919061261c565b60ff167fb15677d2b88ed6302d298c56974c00758cc8f3b79a24a0f6d6316dca6d7e74d5838360ff1681518110610bdb57610bda6121df565b5b602002602001015160000151848460ff1681518110610bfd57610bfc6121df565b5b602002602001015160200151604051610c17929190612018565b60405180910390a28080610c2a9061214a565b915050610aec565b5050565b60008054906101000a900473ffffffffffffffffffffffffffffffffffffffff1681565b600460003373ffffffffffffffffffffffffffffffffffffffff1673ffffffffffffffffffffffffffffffffffffffff16815260200190815260200160002060000160009054906101000a900460ff16610ce9576040517f08c379a0000000000000000000000000000000000000000000000000000000008152600401610ce090612312565b60405180910390fd5b600060149054906101000a900460ff16610d38576040517f08c379a0000000000000000000000000000000000000000000000000000000008152600401610d2f9061237e565b60405180910390fd5b600154421115610d7d576040517f08c379a0000000000000000000000000000000000000000000000000000000008152600401610d749061269c565b60405180910390fd5b60008054906101000a900473ffffffffffffffffffffffffffffffffffffffff1673ffffffffffffffffffffffffffffffffffffffff163373ffffffffffffffffffffffffffffffffffffffff1603610e0b576040517f08c379a0000000000000000000000000000000000000000000000000000000008152600401610e0290612708565b60405180910390fd5b600460003373ffffffffffffffffffffffffffffffffffffffff1673ffffffffffffffffffffffffffffffffffffffff16815260200190815260200160002060000160019054906101000a900460ff1615610e9b576040517f08c379a0000000000000000000000000000000000000000000000000000000008152600401610e9290612774565b60405180910390fd5b6005805490508160ff1610610ee5576040517f08c379a0000000000000000000000000000000000000000000000000000000008152600401610edc906121bf565b60405180910390fd5b6001600460003373ffffffffffffffffffffffffffffffffffffffff1673ffffffffffffffffffffffffffffffffffffffff16815260200190815260200160002060000160016101000a81548160ff02191690831515021790555080600460003373ffffffffffffffffffffffffffffffffffffffff1673ffffffffffffffffffffffffffffffffffffffff16815260200190815260200160002060000160026101000a81548160ff021916908360ff16021790555060058160ff1681548110610fb257610fb16121df565b5b90600052602060002090600402016002016000815480929190610fd490612794565b91905055503373ffffffffffffffffffffffffffffffffffffffff167fefffa0c001f10a86d936643c098510eba656ffab1d0c5165822b79d4c895e88f8260405161101f9190611756565b60405180910390a250565b60046020528060005260406000206000915090508060000160009054906101000a900460ff16908060000160019054906101000a900460ff16908060000160029054906101000a900460ff16908060000160039054906101000a900460ff16905084565b600060149054906101000a900460ff1681565b60008054906101000a900473ffffffffffffffffffffffffffffffffffffffff1673ffffffffffffffffffffffffffffffffffffffff163373ffffffffffffffffffffffffffffffffffffffff161461112f576040517f08c379a000000000000000000000000000000000000000000000000000000000815260040161112690612280565b60405180910390fd5b6000835111611173576040517f08c379a000000000000000000000000000000000000000000000000000000000815260040161116a90612828565b60405180910390fd5b60008251116111b7576040517f08c379a00000000000000000000000000000000000000000000000000000000081526004016111ae90612894565b60405180910390fd5b60005b6005805490508160ff1610156112bd5783836040516020016111dd9291906128f0565b6040516020818303038152906040528051906020012060058260ff168154811061120a576112096121df565b5b906000526020600020906004020160000160058360ff1681548110611232576112316121df565b5b9060005260206000209060040201600101604051602001611254929190612997565b60405160208183030381529060405280519060200120036112aa576040517f08c379a00000000000000000000000000000000000000000000000000000000081526004016112a190612a2d565b60405180910390fd5b80806112b59061214a565b9150506111ba565b5060056040518060800160405280858152602001848152602001600081526020018381525090806001815401808255809150506001900390600052602060002090600402016000909190919091506000820151816000019081611320919061254a565b506020820151816001019081611336919061254a565b50604082015181600201556060820151816003019081611356919061254a565b505050600160058054905061136b919061261c565b60ff167fb15677d2b88ed6302d298c56974c00758cc8f3b79a24a0f6d6316dca6d7e74d5848460405161139f929190612018565b60405180910390a2505050565b60008054906101000a900473ffffffffffffffffffffffffffffffffffffffff1673ffffffffffffffffffffffffffffffffffffffff163373ffffffffffffffffffffffffffffffffffffffff161461143a576040517f08c379a000000000000000000000000000000000000000000000000000000000815260040161143190612280565b60405180910390fd5b600060149054906101000a900460ff16611489576040517f08c379a00000000000000000000000000000000000000000000000000000000081526004016114809061237e565b60405180910390fd5b60008060146101000a81548160ff0219169083151502179055507f66b6cb4a09abc3bf1cacc3c67420258856ffdad0deba9078cbd1658957b5021860405160405180910390a1565b60008054906101000a900473ffffffffffffffffffffffffffffffffffffffff1673ffffffffffffffffffffffffffffffffffffffff163373ffffffffffffffffffffffffffffffffffffffff161461155f576040517f08c379a000000000000000000000000000000000000000000000000000000000815260040161155690612280565b60405180910390fd5b60005b81518110156115f25760038282815181106115805761157f6121df565b5b6020026020010151908060018154018082558091505060019003906000526020600020906002020160009091909190915060008201518160000190816115c6919061254a565b5060208201518160010190816115dc919061254a565b50505080806115ea90612794565b915050611562565b5050565b6003818154811061160657600080fd5b90600052602060002090600202016000915090508060000180546116299061207e565b80601f01602080910402602001604051908101604052809291908181526020018280546116559061207e565b80156116a25780601f10611677576101008083540402835291602001916116a2565b820191906000526020600020905b81548152906001019060200180831161168557829003601f168201915b5050505050908060010180546116b79061207e565b80601f01602080910402602001604051908101604052809291908181526020018280546116e39061207e565b80156117305780601f1061170557610100808354040283529160200191611730565b820191906000526020600020905b81548152906001019060200180831161171357829003601f168201915b5050505050905082565b600060ff82169050919050565b6117508161173a565b82525050565b600060208201905061176b6000830184611747565b92915050565b6000819050919050565b61178481611771565b82525050565b600060208201905061179f600083018461177b565b92915050565b6000604051905090565b600080fd5b600080fd5b6117c281611771565b81146117cd57600080fd5b50565b6000813590506117df816117b9565b92915050565b6000602082840312156117fb576117fa6117af565b5b6000611809848285016117d0565b91505092915050565b600081519050919050565b600082825260208201905092915050565b60005b8381101561184c578082015181840152602081019050611831565b60008484015250505050565b6000601f19601f8301169050919050565b600061187482611812565b61187e818561181d565b935061188e81856020860161182e565b61189781611858565b840191505092915050565b600060808201905081810360008301526118bc8187611869565b905081810360208301526118d08186611869565b90506118df604083018561177b565b81810360608301526118f18184611869565b905095945050505050565b600073ffffffffffffffffffffffffffffffffffffffff82169050919050565b6000611927826118fc565b9050919050565b6119378161191c565b811461194257600080fd5b50565b6000813590506119548161192e565b92915050565b6000602082840312156119705761196f6117af565b5b600061197e84828501611945565b91505092915050565b6119908161173a565b811461199b57600080fd5b50565b6000813590506119ad81611987565b92915050565b6000602082840312156119c9576119c86117af565b5b60006119d78482850161199e565b91505092915050565b600080fd5b7f4e487b7100000000000000000000000000000000000000000000000000000000600052604160045260246000fd5b611a1d82611858565b810181811067ffffffffffffffff82111715611a3c57611a3b6119e5565b5b80604052505050565b6000611a4f6117a5565b9050611a5b8282611a14565b919050565b600067ffffffffffffffff821115611a7b57611a7a6119e5565b5b602082029050602081019050919050565b600080fd5b600080fd5b600080fd5b600080fd5b600067ffffffffffffffff821115611abb57611aba6119e5565b5b611ac482611858565b9050602081019050919050565b82818337600083830152505050565b6000611af3611aee84611aa0565b611a45565b905082815260208101848484011115611b0f57611b0e611a9b565b5b611b1a848285611ad1565b509392505050565b600082601f830112611b3757611b366119e0565b5b8135611b47848260208601611ae0565b91505092915050565b600060808284031215611b6657611b65611a91565b5b611b706080611a45565b9050600082013567ffffffffffffffff811115611b9057611b8f611a96565b5b611b9c84828501611b22565b600083015250602082013567ffffffffffffffff811115611bc057611bbf611a96565b5b611bcc84828501611b22565b6020830152506040611be0848285016117d0565b604083015250606082013567ffffffffffffffff811115611c0457611c03611a96565b5b611c1084828501611b22565b60608301525092915050565b6000611c2f611c2a84611a60565b611a45565b90508083825260208201905060208402830185811115611c5257611c51611a8c565b5b835b81811015611c9957803567ffffffffffffffff811115611c7757611c766119e0565b5b808601611c848982611b50565b85526020850194505050602081019050611c54565b5050509392505050565b600082601f830112611cb857611cb76119e0565b5b8135611cc8848260208601611c1c565b91505092915050565b600060208284031215611ce757611ce66117af565b5b600082013567ffffffffffffffff811115611d0557611d046117b4565b5b611d1184828501611ca3565b91505092915050565b611d238161191c565b82525050565b6000602082019050611d3e6000830184611d1a565b92915050565b60008115159050919050565b611d5981611d44565b82525050565b6000608082019050611d746000830187611d50565b611d816020830186611d50565b611d8e6040830185611747565b611d9b6060830184611d50565b95945050505050565b6000602082019050611db96000830184611d50565b92915050565b600080600060608486031215611dd857611dd76117af565b5b600084013567ffffffffffffffff811115611df657611df56117b4565b5b611e0286828701611b22565b935050602084013567ffffffffffffffff811115611e2357611e226117b4565b5b611e2f86828701611b22565b925050604084013567ffffffffffffffff811115611e5057611e4f6117b4565b5b611e5c86828701611b22565b9150509250925092565b600067ffffffffffffffff821115611e8157611e806119e5565b5b602082029050602081019050919050565b600060408284031215611ea857611ea7611a91565b5b611eb26040611a45565b9050600082013567ffffffffffffffff811115611ed257611ed1611a96565b5b611ede84828501611b22565b600083015250602082013567ffffffffffffffff811115611f0257611f01611a96565b5b611f0e84828501611b22565b60208301525092915050565b6000611f2d611f2884611e66565b611a45565b90508083825260208201905060208402830185811115611f5057611f4f611a8c565b5b835b81811015611f9757803567ffffffffffffffff811115611f7557611f746119e0565b5b808601611f828982611e92565b85526020850194505050602081019050611f52565b5050509392505050565b600082601f830112611fb657611fb56119e0565b5b8135611fc6848260208601611f1a565b91505092915050565b600060208284031215611fe557611fe46117af565b5b600082013567ffffffffffffffff811115612003576120026117b4565b5b61200f84828501611fa1565b91505092915050565b600060408201905081810360008301526120328185611869565b905081810360208301526120468184611869565b90509392505050565b7f4e487b7100000000000000000000000000000000000000000000000000000000600052602260045260246000fd5b6000600282049050600182168061209657607f821691505b6020821081036120a9576120a861204f565b5b50919050565b7f566f74657220697320616c726561647920726567697374657265640000000000600082015250565b60006120e5601b8361181d565b91506120f0826120af565b602082019050919050565b60006020820190508181036000830152612114816120d8565b9050919050565b7f4e487b7100000000000000000000000000000000000000000000000000000000600052601160045260246000fd5b60006121558261173a565b915060ff82036121685761216761211b565b5b600182019050919050565b7f496e76616c69642063616e646964617465204944000000000000000000000000600082015250565b60006121a960148361181d565b91506121b482612173565b602082019050919050565b600060208201905081810360008301526121d88161219c565b9050919050565b7f4e487b7100000000000000000000000000000000000000000000000000000000600052603260045260246000fd5b7f4f6e6c7920746865206f776e65722063616e2063616c6c20746869732066756e60008201527f6374696f6e000000000000000000000000000000000000000000000000000000602082015250565b600061226a60258361181d565b91506122758261220e565b604082019050919050565b600060208201905081810360008301526122998161225d565b9050919050565b7f596f7520617265206e6f742072656769737465726564206173206120766f746560008201527f7200000000000000000000000000000000000000000000000000000000000000602082015250565b60006122fc60218361181d565b9150612307826122a0565b604082019050919050565b6000602082019050818103600083015261232b816122ef565b9050919050565b7f566f74696e6720697320636c6f73656400000000000000000000000000000000600082015250565b600061236860108361181d565b915061237382612332565b602082019050919050565b600060208201905081810360008301526123978161235b565b9050919050565b60008190508160005260206000209050919050565b60006020601f8301049050919050565b600082821b905092915050565b6000600883026124007fffffffffffffffffffffffffffffffffffffffffffffffffffffffffffffffff826123c3565b61240a86836123c3565b95508019841693508086168417925050509392505050565b6000819050919050565b600061244761244261243d84611771565b612422565b611771565b9050919050565b6000819050919050565b6124618361242c565b61247561246d8261244e565b8484546123d0565b825550505050565b600090565b61248a61247d565b612495818484612458565b505050565b5b818110156124b9576124ae600082612482565b60018101905061249b565b5050565b601f8211156124fe576124cf8161239e565b6124d8846123b3565b810160208510156124e7578190505b6124fb6124f3856123b3565b83018261249a565b50505b505050565b600082821c905092915050565b600061252160001984600802612503565b1980831691505092915050565b600061253a8383612510565b9150826002028217905092915050565b61255382611812565b67ffffffffffffffff81111561256c5761256b6119e5565b5b612576825461207e565b6125818282856124bd565b600060209050601f8311600181146125b457600084156125a2578287015190505b6125ac858261252e565b865550612614565b601f1984166125c28661239e565b60005b828110156125ea578489015182556001820191506020850194506020810190506125c5565b868310156126075784890151612603601f891682612510565b8355505b6001600288020188555050505b505050505050565b600061262782611771565b915061263283611771565b925082820390508181111561264a5761264961211b565b5b92915050565b7f566f74696e672068617320656e64656400000000000000000000000000000000600082015250565b600061268660108361181d565b915061269182612650565b602082019050919050565b600060208201905081810360008301526126b581612679565b9050919050565b7f4f776e65727320617265206e6f7420616c6c6f77656420746f20766f74650000600082015250565b60006126f2601e8361181d565b91506126fd826126bc565b602082019050919050565b60006020820190508181036000830152612721816126e5565b9050919050565b7f596f75206861766520616c726561647920766f74656400000000000000000000600082015250565b600061275e60168361181d565b915061276982612728565b602082019050919050565b6000602082019050818103600083015261278d81612751565b9050919050565b600061279f82611771565b91507fffffffffffffffffffffffffffffffffffffffffffffffffffffffffffffffff82036127d1576127d061211b565b5b600182019050919050565b7f43616e646964617465206e616d652063616e6e6f7420626520656d7074790000600082015250565b6000612812601e8361181d565b915061281d826127dc565b602082019050919050565b6000602082019050818103600083015261284181612805565b9050919050565b7f43616e6469646174652070617274792063616e6e6f7420626520656d70747900600082015250565b600061287e601f8361181d565b915061288982612848565b602082019050919050565b600060208201905081810360008301526128ad81612871565b9050919050565b600081905092915050565b60006128ca82611812565b6128d481856128b4565b93506128e481856020860161182e565b80840191505092915050565b60006128fc82856128bf565b915061290882846128bf565b91508190509392505050565b600081546129218161207e565b61292b81866128b4565b94506001821660008114612946576001811461295b5761298e565b60ff198316865281151582028601935061298e565b6129648561239e565b60005b8381101561298657815481890152600182019150602081019050612967565b838801955050505b50505092915050565b60006129a38285612914565b91506129af8284612914565b91508190509392505050565b7f43616e6469646174652077697468207468652073616d65206e616d6520616e6460008201527f20706172747920616c7265616479206578697374730000000000000000000000602082015250565b6000612a1760358361181d565b9150612a22826129bb565b604082019050919050565b60006020820190508181036000830152612a4681612a0a565b905091905056fea2646970667358221220555b714c3477dfcbc9bbb038870f8d2b7204e14812d482707f02fbc600e342da64736f6c63430008130033",
  "linkReferences": {},
  "deployedLinkReferences": {}
}